:020000040800F2
:1000000000000220818E0008890100089501000887
:100010009D010008A5010008AD01000800000000D6
:1000200000000000000000000000000015120008A1
:10003000B5010008000000000D1400085D14000860
:10004000CD8E0008CD8E0008CD8E0008CD8E000824
:10005000CD8E0008CD8E0008CD8E0008CD8E000814
:10006000CD8E0008CD8E0008CD8E0008CD8E000804
:10007000CD8E0008CD8E0008CD8E0008CD8E0008F4
:10008000CD8E0008CD8E0008CD8E0008CD8E0008E4
:10009000CD8E0008CD8E0008CD8E0008CD8E0008D4
:1000A000CD8E0008CD8E0008CD8E0008CD8E0008C4
:1000B000CD8E0008CD8E0008CD8E0008CD8E0008B4
:1000C000CD8E0008CD8E0008CD8E0008CD8E0008A4
:1000D000CD8E0008CD8E0008B90B0008CD8E00082B
:1000E000CD8E0008CD8E0008CD8E0008CD8E000884
:1000F000CD8E0008CD8E0008CD8E0008CD8E000874
:10010000CD8E0008CD8E0008CD8E0008CD8E000863
:10011000CD8E0008CD8E0008CD8E0008CD8E000853
:10012000CD8E0008CD8E0008CD8E0008CD8E000843
:10013000CD8E0008CD8E0008CD8E0008CD8E000833
:10014000CD8E0008CD8E0008CD8E0008CD8E000823
:10015000CD8E0008CD8E0008CD8E0008CD8E000813
:10016000CD8E0008CD8E0008CD8E0008CD8E000803
:10017000CD8E0008CD8E0008CD8E0008CD8E0008F3
:08018000CD8E0008CD8E0008B1
:1001880080B400AFBD4680BC704700BF80B400AFEC
:10019800FEE700BF80B400AFFEE700BF80B400AF49
:1001A800FEE700BF80B400AFFEE700BF80B400AF39
:1001B800BD4680BC704700BF80B500AF4FF46053A8
:1001C800C4F202034FF46052C4F20202126842F011
:1001D80001021A604FF46053C4F202034FF00002A8
:1001E8009A604FF46053C4F202034FF46052C4F2B1
:1001F8000202126822F0847222F480321A604FF4EC
:100208006053C4F2020343F21002C2F200425A6081
:100218004FF46053C4F202034FF46052C4F2020276
:10022800126822F480221A604FF46053C4F2020369
:100238004FF00002DA6000F0CFF84FF46D43CEF2D1
:1002480000034FF000629A604FF46D43CEF2000352
:100258004FF46D42CEF20002D2F8882042F47002C8
:10026800C3F8882080BD00BF80B487B000AF4FF0CE
:1002780000033B614FF000037B614FF00203FB601A
:100288004FF00003BB604FF002037B604FF46053F4
:10029800C4F202039B6803F00C033B613B69042B27
:1002A8000DD0082B15D0002B69D140F20003C2F203
:1002B80000034FF41052C0F2F4021A6069E040F2F1
:1002C8000003C2F200034FF49052C0F27A021A609F
:1002D8005FE04FF46053C4F202035B6803F48003E9
:1002E8004FEA9353BB604FF46053C4F202035B6858
:1002F80003F03F037B60BB68002B14D04FF490538E
:10030800C0F27A037A68B3FBF2F24FF46053C4F296
:100318000203596847F6C0730B404FEA931303FB77
:1003280002F37B6113E04FF41053C0F2F4037A68D0
:10033800B3FBF2F24FF46053C4F20203596847F674
:10034800C0730B404FEA931303FB02F37B614FF436
:100358006053C4F202035B6803F440334FEA13436B
:1003680003F101034FEA4303FB607A69FB68B2FBC0
:10037800F3F240F20003C2F200031A6009E040F20F
:100388000003C2F200034FF41052C0F2F4021A60E4
:1003980000BF4FF46053C4F202039B6803F0F003FC
:1003A8004FEA131240F20403C2F200039B5CDBB273
:1003B8003B6140F20003C2F200031A683B6922FA6B
:1003C80003F240F20003C2F200031A6007F11C07AF
:1003D800BD4680BC704700BF80B483B000AF4FF00B
:1003E80000037B604FF000033B604FF46053C4F29E
:1003F80002034FF46052C4F20202126842F48032DF
:100408001A604FF46053C4F202031B6803F400330C
:100418003B607B6803F101037B603B68002B03D1E1
:100428007B68B3F5A06FECD14FF46053C4F20203BC
:100438001B6803F40033002B03D04FF001033B602B
:1004480002E04FF000033B603B68012B40F08280E4
:100458004FF46053C4F202034FF46052C4F2020234
:10046800126C42F080521A644FF4E043C4F2000365
:100478004FF4E042C4F20002126842F480421A606B
:100488004FF46053C4F202034FF46052C4F2020204
:1004980092689A604FF46053C4F202034FF46052BA
:1004A800C4F20202926842F400429A604FF4605328
:1004B800C4F202034FF46052C4F20202926842F49A
:1004C800A0529A604FF46053C4F2020345F2084206
:1004D800C0F240725A604FF46053C4F202034FF402
:1004E8006052C4F20202126842F080721A6000BFC1
:1004F8004FF46053C4F202031B6803F00073002B2F
:10050800F6D04FF47053C4F2020340F205621A6049
:100518004FF46053C4F202034FF46052C4F2020273
:10052800926822F003029A604FF46053C4F2020307
:100538004FF46052C4F20202926842F002029A60DA
:1005480000BF4FF46053C4F202039B6803F00C032E
:10055800082BF6D14FF46053C4F202034FF46052F3
:10056800C4F20202926822F400029A604FF46053C7
:10057800C4F202034FF44052C5F20002C3F88420CB
:100588004FF46053C4F202034FF46052C4F2020203
:10059800126842F080621A6000BF4FF46053C4F2E0
:1005A80002031B6803F00063002BF6D007F10C0769
:1005B800BD4680BC704700BF80B400AFBD4680BC5C
:1005C800704700BF80B500AF00F00EFFFEE700BF28
:1005D80080B400AFBD4680BC704700BF80B582B014
:1005E80000AF7860396000F0FFFEFEE780B582B0AA
:1005F80000AF786018E07B681B787A6802F1010226
:100608007A604FF49040C4F20000194608F082F96D
:1006180000BF4FF49040C4F200004FF0400108F0D2
:1006280075FB0346002BF4D07B681B78002BE2D1C6
:1006380007F10807BD4680BD80B582B000AF03460C
:10064800FB714FF40050C4F2010004F0ABFB00BF93
:100658004FF40050C4F201004FF0020104F084FE90
:100668000346002BF4D04FF40050C4F2010004F00C
:100678003FFC0346184607F10807BD4680BD00BF8A
:1006880080B58CB004AF4FF00003FB774CF25033C9
:10069800BB614FF000037B614FF47043C4F27F539A
:1006A8003B614FF48043C4F29C53FB604FF4C0435A
:1006B800C4F2B843BB604FF40043C4F293337B6089
:1006C80097ED037AD7ED047AC7EE277AC7ED007A5B
:1006D8004FF4165000F068F94FF4165000F0E6F9A0
:1006E80000F0A0FC00F0F2FB00F0CEFC00F066FC8D
:1006F8004FF0010300934FF0000301934FF0000304
:1007080002934FF00003039340F23970C0F60000E3
:1007180048F61071C0F600014FF082024FF0000356
:1007280001F052FE0346FB7702F03AFAFEE700BFFB
:1007380080B582B000AF786000E000BF42F6A053F9
:10074800C2F201035B78DBB2642BF6D142F6A05308
:10075800C2F201031B78DBB2662B33D14FF00000E5
:10076800C4F201004FF0FF0106F04CFD4FF000000D
:10077800C4F201004FF0FF0106F052FD4FF4806013
:10078800C4F200004FF0000106F03CFD4FF4806019
:10079800C4F200004FF07F0106F042FD4FF4806084
:1007A800C4F200004FF0000106F048FD4FF48060ED
:1007B800C4F200004FF07F0106F04EFD4FF06400D8
:1007C80001F09AFF42F6A053C2F201031B78DBB294
:1007D800732B33D14FF00000C4F201004FF0000139
:1007E80006F010FD4FF00000C4F201004FF00001C8
:1007F80006F016FD4FF48060C4F200004FF00001CF
:1008080006F000FD4FF48060C4F200004FF00001D4
:1008180006F006FD4FF48060C4F200004FF00001BE
:1008280006F00CFD4FF48060C4F200004FF00001A8
:1008380006F012FD4FF0640001F05EFF42F6A0538F
:10084800C2F201031B78DBB2622B33D14FF00000F8
:10085800C4F201004FF0FF0106F0D4FC4FF0000095
:10086800C4F201004FF0FF0106F0DAFC4FF480609B
:10087800C4F200004FF07F0106F0C4FC4FF4806022
:10088800C4F200004FF0000106F0CAFC4FF480608B
:10089800C4F200004FF07F0106F0D0FC4FF48060F6
:1008A800C4F200004FF0000106F0D6FC4FF06400DF
:1008B80001F022FF42F6A053C2F201031B78DBB21B
:1008C8006C2B33D14FF00000C4F201004FF0FF0150
:1008D80006F098FC4FF00000C4F201004FF0FF0151
:1008E80006F09EFC4FF48060C4F200004FF07F01D8
:1008F80006F088FC4FF48060C4F200004FF000015D
:1009080006F08EFC4FF48060C4F200004FF0000146
:1009180006F094FC4FF48060C4F200004FF07F01B1
:1009280006F09AFC4FF0640001F0E6FE42F6A05390
:10093800C2F201031B78DBB2722B7FF4FEAE4FF0DC
:100948000000C4F201004FF0FF0106F05BFC4FF01D
:100958000000C4F201004FF0FF0106F061FC4FF403
:100968008060C4F200004FF0000106F04BFC4FF429
:100978008060C4F200004FF07F0106F051FC4FF494
:100988008060C4F200004FF07F0106F057FC4FF47E
:100998008060C4F200004FF0000106F05DFC4FF0EB
:1009A800640001F0A9FEC8E680B58AB000AF78609F
:1009B8004FF480204FF0010105F004FC4FF00200D5
:1009C8004FF0010105F080FB4FF440633B624FF0AC
:1009D800020387F824304FF0020387F825304FF0E0
:1009E800000387F826304FF0010387F8273007F116
:1009F80020034FF48060C4F20200194604F0ECFDB5
:100A08004FF48060C4F202004FF00A014FF0070271
:100A180004F070FF4FF48060C4F202004FF00B0145
:100A28004FF0070204F066FF7B683B614FF000035C
:100A3800BB824FF00003FB824FF000033B834FF073
:100A48000003BB834FF00C037B8307F110034FF4C3
:100A58009040C4F20000194607F0A0FD4FF4904002
:100A6800C4F2000040F225514FF0010208F0FCF8F2
:100A78004FF027033B734FF000037B734FF00003E5
:100A8800BB734FF00103FB7307F10C03184603F027
:100A980043FE4FF49040C4F200004FF0010107F00C
:100AA800B9FE07F12807BD4680BD00BF80B58AB0F2
:100AB80000AF78604FF400304FF0010105F082FB81
:100AC8004FF001004FF0010105F0FEFA4FF00C0362
:100AD8003B624FF0020387F824304FF0020387F897
:100AE80025304FF0000387F826304FF0010387F8D0
:100AF800273007F120034FF00000C4F20200194626
:100B080004F06AFD4FF00000C4F202004FF0020149
:100B18004FF0070204F0EEFE4FF00000C4F20200AE
:100B28004FF003014FF0070204F0E4FE7B683B61DD
:100B38004FF00003BB824FF00003FB824FF000032D
:100B48003B834FF00003BB834FF00C037B8307F11B
:100B580010034FF48840C4F20000194607F01EFD48
:100B68004FF48840C4F2000040F225514FF00102D2
:100B780008F07AF84FF026033B734FF000037B73BD
:100B88004FF00003BB734FF00103FB7307F10C0335
:100B9800184603F0C1FD4FF48840C4F200004FF03E
:100BA800010107F037FE07F12807BD4680BD00BFE9
:100BB80090B583B000AF4FF48840C4F2000040F213
:100BC800255108F0D5F80346002B41D040F24C03DC
:100BD800C2F200031B781C464FF48840C4F20000A0
:100BE80007F0ACFE0346DAB242F6A053C2F20103A4
:100BF8001A5540F24C03C2F200031B7803F10103BB
:100C0800DAB240F24C03C2F200031A7040F24C030D
:100C1800C2F200031B78012B1AD940F24C03C2F22E
:100C280000034FF000021A704FF000037B600CE0E5
:100C380042F6A053C2F201037A689B184FF00002F3
:100C48001A707B6803F101037B607B68002BEFDD82
:100C580007F10C07BD4690BD80B582B000AF786043
:100C6800396015E000BF78684FF0800108F04EF851
:100C78000346002BF7D03B681B78DBB2786819462F
:100C880007F048FE3B681B783B6803F101033B60B3
:100C98003B681B78DBB2002BE4D107F10807BD469F
:100CA80080BD00BF80B58AB000AF786039603B680E
:100CB800002B5DD140F24403C2F200031B781A46B0
:100CC80007F1280082184FF0300102F8141C03F1D4
:100CD8000103DAB240F24403C2F200031A7047E09B
:100CE80039684CF6CD43CCF6CC43A3FB01234FEA3D
:100CF800D30213464FEA83039B184FEA4303CA1AE9
:100D080040F24803C2F200031A6040F24803C2F2FC
:100D180000031B683A68D31A3B603A684CF6CD4327
:100D2800CCF6CC43A3FB02034FEAD3033B6040F26B
:100D38004403C2F200031B78194640F24803C2F28A
:100D480000031B68DBB203F13003DAB207F12800B5
:100D5800431803F8142C40F24403C2F200031B7832
:100D680003F10103DAB240F24403C2F200031A703D
:100D78003B68002BB4D14FF000037B6220E040F2C7
:100D88004403C2F200031B7803F1FF33DAB240F2E6
:100D98004403C2F200031A7040F24403C2F2000393
:100DA8001B7807F12801CB1813F8143CDAB207F1C5
:100DB80008017B6ACB181A707B6A03F101037B6216
:100DC80040F24403C2F200031B78002BD7D107F18D
:100DD80008027B6AD3184FF000021A7007F1080363
:100DE8004FF49040C4F200001946FFF735FF40F277
:100DF8004403C2F200034FF000021A704FF00003E0
:100E08003B6211E007F114023B6AD3184FF000026D
:100E18001A7007F108023B6AD3184FF000021A70E3
:100E28003B6A03F101033B623B6A092BEADD07F1E8
:100E38002807BD4680BD00BF80B582B000AF03461D
:100E4800FB7100BF40F23803C2F200031B6818466A
:100E58004FF000014FF0FF324FF0000300F0DEFECC
:100E68000346002BEED0FB799BB24FF49040C4F2BE
:100E78000000194607F04EFD4FF49040C4F2000000
:100E880040F227714FF0010207F0EEFE07F1080764
:100E9800BD4680BD80B582B000AF00BF40F23C03C4
:100EA800C2F200031A6807F10403104619464FF00E
:100EB800FF324FF0000300F0B1FE0346002BEDD0E7
:100EC8003B79184607F10807BD4680BD80B582B05A
:100ED80000AF4FF004004FF0010105F0F5F84FF0B6
:100EE80001004FF0010105F0EFF840F21403C2F2DF
:100EF80000031A8840F21603C2F200031B8813434A
:100F08009BB23B604FF002033B714FF003037B71D0
:100F18004FF00003BB714FF00103FB713B464FF4E8
:100F28000060C4F20200194604F056FB3B464FF03D
:100F38000000C4F20200194604F04EFB4FF40060B2
:100F4800C4F202004FF006014FF0020204F0D2FC96
:100F58004FF40060C4F202004FF007014FF00202A4
:100F680004F0C8FC4FF40060C4F202004FF008011E
:100F78004FF0020204F0BEFC4FF40060C4F202001D
:100F88004FF009014FF0020204F0B4FC4FF00000EA
:100F9800C4F202004FF008014FF0010204F0AAFC6D
:100FA8004FF00000C4F202004FF009014FF00102B7
:100FB80004F0A0FC07F10807BD4680BD80B500AF6E
:100FC8004FF48060C4F200004FF0000106F01AF9F7
:100FD8004FF48060C4F200004FF0000106F020F9E1
:100FE8004FF48060C4F200004FF0000106F026F9CB
:100FF8004FF48060C4F200004FF0000106F02CF9B5
:101008004FF00000C4F201004FF0000106F0FAF8BA
:101018004FF00000C4F201004FF0000106F000F9A3
:1010280080BD00BF80B584B000AF4FF002004FF024
:10103800010105F0C7F84FF001004FF0010105F07C
:10104800C1F84FF0F903FB604FF0FF037B60FB68CA
:101058009BB23B804FF000033B814FF000037B8045
:101068003B464FF48060C4F20000194605F078FC56
:101078003B464FF00000C4F20100194605F070FC31
:1010880007F11007BD4680BD80B586B000AF4FF0B0
:101098006003BB804FF00103FB804FF00003FB604F
:1010A8004FF000033B8207F104034FF48060C4F261
:1010B8000000194605F00AFE4FF48060C4F20000F3
:1010C8004FF0080106F04EF907F104034FF4806071
:1010D800C4F20000194605F077FE4FF48060C4F2B0
:1010E80000004FF0080106F059F907F104034FF426
:1010F8008060C4F20000194605F0FAFE4FF48060E3
:10110800C4F200004FF0080106F068F907F1040383
:101118004FF48060C4F20000194605F079FF4FF4DF
:101128008060C4F200004FF0080106F073F94FF434
:101138008060C4F200004FF0010105F0A7FD07F13F
:1011480004034FF00000C4F20100194605F0BEFD8B
:101158004FF00000C4F201004FF0080106F002F958
:1011680007F104034FF00000C4F20100194605F02E
:101178002BFE4FF00000C4F201004FF0080106F00A
:101188000DF94FF00000C4F201004FF0010105F025
:101198007DFD07F11807BD4680BD00BF80B485B04E
:1011A80000AFF860B9607A60FB68A3F10403FB60E4
:1011B800FB684FF080721A60FB68A3F10403FB60C0
:1011C800BA68FB681A60FB68A3F10403FB60FB685C
:1011D8004FF000021A60FB68A3F11403FB607A6801
:1011E800FB681A60FB68A3F10403FB60FB686FF0FF
:1011F80002021A60FB68A3F12003FB60FB68184633
:1012080007F11407BD4680BC704700BF054B19683D
:101218000868B0E8F04F80F309884FF0000080F3C9
:101228001188704758000020C2480068006880F3A1
:10123800088862B600DF00BF80B584B000AF4FF405
:101248006443CEF20003FB60FB681B78DBB2BB6033
:10125800FB684FF0FF021A70FB681B78DBB2FB716A
:10126800FB79DBB203F05003DAB240F25003C2F26A
:1012780000031A7040F25403C2F200034FF0070251
:101288001A6011E040F25403C2F200031B6803F134
:10129800FF3240F25403C2F200031A60FB79DBB25A
:1012A8004FEA4303DBB2FB71FB79DBB2DBB25BB223
:1012B800002BE7DB40F25403C2F200031B684FEA3D
:1012C800032240F25403C2F200031A6040F25403AE
:1012D800C2F200031B6803F4E06240F25403C2F256
:1012E80000031A60BB68DAB2FB681A704EF6205326
:1012F800CEF200034EF62052CEF20002126842F4FB
:1013080070021A604EF62053CEF200034EF62052B9
:10131800CEF20002126842F070421A6000F0B0F893
:1013280040F21803C2F200034FF000021A6000F006
:10133800C7F84EF63473CEF200034EF63472CEF28E
:101348000002126842F040421A60FFF76DFF4FF04A
:101358000003184607F11007BD4680BD80B400AFF2
:10136800BD4680BC704700BF80B400AF4EF6045342
:10137800CEF200034FF080521A60BFF34F8FBFF3D5
:101388006F8FBD4680BC704780B500AF00F02CF869
:1013980040F21803C2F200031B6803F1010240F295
:1013A8001803C2F200031A60BFF34F8FBFF36F8FA9
:1013B80080BD00BF80B500AF40F21803C2F2000341
:1013C8001B6803F1FF3240F21803C2F200031A60EF
:1013D80040F21803C2F200031B68002B03D14FF040
:1013E800000000F00BF880BDEFF311804FF05001C2
:1013F80081F3118870474FF00003184680F3118875
:10140800704700BFEFF30980114B1A681EF0100FE8
:1014180008BF20ED108A20E9F04F10602DE9084040
:101428004FF0500080F3118801F0CCFE4FF000001F
:1014380080F31188BDE8084019680868B0E8F04FE3
:101448001EF0100F08BFB0EC108A80F309887047AF
:101458005800002080B500AFFFF7C6FF01F08EFDF1
:101468000346002B06D04EF60453CEF200034FF08D
:1014780080521A604FF00000FFF7C0FF80BD00BF28
:1014880080B400AF4EF21403CEF2000340F2000223
:10149800C2F20002116844F6D352C1F26202A2FB02
:1014A80001024FEA921202F1FF321A604EF2100363
:1014B800CEF200034FF007021A60BD4680BC7047A9
:1014C800DFF87400016841F470010160704700BFE3
:1014D80090B583B000AFEFF305847C607B680F2B79
:1014E80013D948F62C73C0F600031A687B68D31822
:1014F8001B78FB7040F25003C2F200031B78FA78A5
:101508009A4202D2FFF770FFFEE74EF60C53CEF276
:1015180000031B6803F4E06240F25403C2F20003C4
:101528001B689A4202D9FFF75FFFFEE707F10C0735
:10153800BD4690BD08ED00E088ED00E080B483B0C2
:1015480000AF78607B6803F108027B685A607B68AB
:101558004FF0FF329A607B6803F108027B68DA601B
:101568007B6803F108027B681A617B684FF0000210
:101578001A6007F10C07BD4680BC704780B483B081
:1015880000AF78607B684FF000021A6107F10C0722
:10159800BD4680BC704700BF80B485B000AF78609E
:1015A80039607B685B68FB603B68FA685A60FB6877
:1015B8009A683B689A60FB689B683A685A60FB685F
:1015C8003A689A603B687A681A617B681B6803F11D
:1015D80001027B681A6007F11407BD4680BC70479A
:1015E80080B485B000AF786039603B681B68BB6029
:1015F800BB68B3F1FF3F03D17B681B69FB600DE05B
:101608007B6803F10803FB6002E0FB685B68FB6032
:10161800FB685B681A68BB689A42F6D9FB685A6827
:101628003B685A603B685B683A689A603B68FA684E
:101638009A60FB683A685A603B687A681A617B6806
:101648001B6803F101027B681A6007F11407BD46A5
:1016580080BC704780B485B000AF78607B685B68F9
:101668007A6892689A607B689B687A6852685A6060
:101678007B681B69FB60FB685A687B689A4203D1E8
:101688007B689A68FB685A607B684FF000021A61B1
:10169800FB681B6803F1FF32FB681A60FB681B6874
:1016A800184607F11407BD4680BC704780B584B062
:1016B80000AF786039607B68FB60FB68002B02D163
:1016C800FFF792FEFEE7FFF75FFEFB681A68FB680C
:1016D800DB6BF968096C01FB03F3D218FB685A60ED
:1016E800FB684FF000029A63FB681A68FB689A600F
:1016F800FB681A68FB68DB6B03F1FF33F968096C58
:1017080001FB03F3D218FB68DA60FB684FF0FF3285
:101718005A64FB684FF0FF329A643B68002B0FD184
:10172800FB681B69002B17D0FB6803F110031846F0
:1017380001F064FE0346012B0ED1FFF715FE0BE006
:10174800FB6803F110031846FFF7F8FEFB6803F186
:1017580024031846FFF7F2FEFFF72CFE4FF00103B3
:10176800184607F11007BD4680BD00BF80B588B098
:1017780000AFF860B9601346FB714FF00003FB61DE
:10178800FB68002B2DD04FF0500002F0B7FDB86178
:10179800BB69002B25D0FB68BA6802FB03F303F191
:1017A80001037B61786902F0A9FD0246BB691A60F2
:1017B800BB691B68002B11D0BB69FA68DA63BB6987
:1017C800BA681A64B8694FF00101FFF76FFFBB6987
:1017D800FA7983F84D20BB69FB6102E0B86902F031
:1017E8003FFEFB69002B02D1FFF7FEFDFEE7FB6918
:1017F800184607F12007BD4680BD00BF80B584B0FC
:1018080000AF0346FB714FF0500002F077FDF8601F
:10181800FB68002B3CD0FB684FF000025A60FB6865
:101828004FF000021A60FB684FF000029A60FB68F4
:101838004FF00002DA60FB684FF000029A63FB6821
:101848004FF00102DA63FB684FF000021A64FB688C
:101858004FF0FF325A64FB684FF0FF329A64FB681E
:10186800FA7983F84D20FB6803F110031846FFF757
:1018780065FEFB6803F124031846FFF75FFEF8686E
:101888004FF000014FF000024FF0000300F096F80F
:10189800FB68002B02D1FFF7A7FDFEE7FB6818469F
:1018A80007F11007BD4680BD90B585B000AF7860E0
:1018B8007B68BB60BB68002B02D1FFF795FDFEE794
:1018C800BB685C6802F0E6F803469C4216D1BB6828
:1018D800DB6803F1FF32BB68DA60BB68DB68002BAA
:1018E80008D1B8684FF000014FF000024FF0000334
:1018F80000F064F84FF00103FB6002E04FF00003D2
:10190800FB60FB68184607F11407BD4690BD00BF91
:1019180090B585B000AF786039607B68BB60BB6804
:10192800002B02D1FFF760FDFEE7BB685C6802F0A0
:10193800B1F803469C4209D1BB68DB6803F1010298
:10194800BB68DA604FF00103FB6011E0B8684FF044
:1019580000013A684FF0000300F060F9F860FB6896
:10196800012B05D1BB68DB6803F10102BB68DA60B3
:10197800FB68184607F11407BD4690BD80B584B0D2
:1019880000AF7860396078684FF000014FF00202CC
:10199800FFF7ECFEF860FB68002B02D0FB683A68A2
:1019A8009A63FB68002B02D1FFF71EFDFEE7FB6878
:1019B800184607F11007BD4680BD00BF80B588B046
:1019C80000AFF860B9607A603B604FF00003FB61DC
:1019D800FB68BB61BB69002B02D1FFF705FDFEE781
:1019E800BB68002B03D1BB691B6C002B02D14FF0E5
:1019F800010301E04FF00003002B02D1FFF7F4FCD4
:101A0800FEE73B68022B03D1BB69DB6B012B02D1DC
:101A18004FF0010301E04FF00003002B03D1FFF763
:101A2800E3FCFEE700BFFFF7AFFCBB699A6BBB693D
:101A3800DB6B9A4202D33B68022B18D1B869B968AC
:101A48003A6800F0DFFABB695B6A002B0AD0BB6911
:101A580003F12403184601F0D1FC0346012B01D100
:101A6800FFF782FCFFF7A6FC4FF001035DE07B68FF
:101A7800002B04D1FFF79EFC4FF0000355E0FB69F3
:101A8800002B07D107F11003184601F01FFD4FF096
:101A98000103FB61FFF78EFC01F0D4F8FFF774FC3B
:101AA800BB695B6CB3F1FF3F03D1BB694FF0000228
:101AB8005A64BB699B6CB3F1FF3F03D1BB694FF01C
:101AC80000029A64FFF776FC07F1100207F104039D
:101AD8001046194601F016FD0346002B1ED1B869C1
:101AE80000F0ACFB0346002B12D0BB6903F11002D7
:101AF8007B681046194601F00FFCB86900F018FB26
:101B080001F0B2F80346002B8CD1FFF72DFC89E7D2
:101B1800B86900F00DFB01F0A7F883E7B86900F099
:101B280007FB01F0A1F84FF00003184607F1200762
:101B3800BD4680BD80B588B000AFF860B9607A60F6
:101B48003B60FB68BB61BB69002B02D1FFF74CFC13
:101B5800FEE7BB68002B03D1BB691B6C002B02D1CD
:101B68004FF0010301E04FF00003002B02D1FFF713
:101B78003BFCFEE73B68022B03D1BB69DB6B012B07
:101B880002D14FF0010301E04FF00003002B02D116
:101B9800FFF72AFCFEE7FFF79BFCFFF725FC7861BF
:101BA800BB699A6BBB69DB6B9A4202D33B68022B19
:101BB80028D1B869B9683A6800F024FABB699B6C07
:101BC800B3F1FF3F14D1BB695B6A002B16D0BB6928
:101BD80003F12403184601F011FC0346002B0DD035
:101BE8007B68002B0AD07B684FF001021A6005E081
:101BF800BB699B6C03F10102BB699A644FF0010356
:101C0800FB6102E04FF00003FB617869FFF7F6FB28
:101C1800FB69184607F12007BD4680BD80B58AB02C
:101C280000AFF860B9607A603B604FF000037B62F8
:101C3800FB683B623B6A002B02D1FFF7D5FBFEE74E
:101C4800BB68002B03D13B6A1B6C002B02D14FF001
:101C5800010301E04FF00003002B03D1FFF7C4FBA1
:101C6800FEE700BFFFF790FB3B6A9B6B002B3FD062
:101C78003B6ADB68FB61386AB96800F031FA3B6897
:101C8800002B1ED13B6A9B6B03F1FF323B6A9A63C0
:101C98003B6A1B68002B04D101F0FCFE02463B6A3C
:101CA8005A603B6A1B69002B1DD03B6A03F1100385
:101CB800184601F0A3FB0346012B14D1FFF754FB90
:101CC80011E03B6AFA69DA603B6A5B6A002B0AD06A
:101CD8003B6A03F12403184601F090FB0346002BEE
:101CE80001D0FFF741FBFFF765FB4FF001036BE005
:101CF8007B68002B04D1FFF75DFB4FF0000363E026
:101D08007B6A002B07D107F11403184601F0DEFBAC
:101D18004FF001037B62FFF74DFB00F093FFFFF7E5
:101D280033FB3B6A5B6CB3F1FF3F03D13B6A4FF077
:101D380000025A643B6A9B6CB3F1FF3F03D13B6AD4
:101D48004FF000029A64FFF735FB07F1140207F120
:101D580004031046194601F0D5FB0346002B2CD18D
:101D6800386A00F035FA0346002B20D03B6A1B681E
:101D7800002B08D1FFF708FB3B6A5B68184601F0A7
:101D8800BDFEFFF717FB3B6A03F124027B68104690
:101D9800194601F0C1FA386A00F0CAF900F064FF88
:101DA8000346002B7FF45DAFFFF7DEFA59E7386A88
:101DB80000F0BEF900F058FF53E7386A00F0B8F9B0
:101DC80000F052FF4FF00003184607F12807BD4600
:101DD80080BD00BF80B588B000AFF860B9607A6098
:101DE800FB68BB61BB69002B02D1FFF7FDFAFEE778
:101DF800BB68002B03D1BB691B6C002B02D14FF0D1
:101E0800010301E04FF00003002B02D1FFF7ECFAC9
:101E1800FEE7FFF75DFBFFF7E7FA7861BB699B6BAD
:101E2800002B2DD0B869B96800F05AF9BB699B6BD3
:101E380003F1FF32BB699A63BB695B6CB3F1FF3F87
:101E480014D1BB691B69002B16D0BB6903F11003C1
:101E5800184601F0D3FA0346002B0DD07B68002BFF
:101E68000AD07B684FF001021A6005E0BB695B6C21
:101E780003F10102BB695A644FF00103FB6102E000
:101E88004FF00003FB617869FFF7B8FAFB69184661
:101E980007F12007BD4680BD80B586B000AF7860E9
:101EA80039607B683B613B69002B02D1FFF79CFAE4
:101EB800FEE73B68002B03D13B691B6C002B02D16A
:101EC8004FF0010301E04FF00003002B02D1FFF7B0
:101ED8008BFAFEE7FFF7FCFAFFF786FAF8603B6932
:101EE8009B6B002B0DD03B69DB68BB603869396898
:101EF80000F0F6F83B69BA68DA604FF001037B61DD
:101F080002E04FF000037B61F868FFF777FA7B691E
:101F1800184607F11807BD4680BD00BF80B584B0DC
:101F280000AF78607B68002B02D1FFF75DFAFEE70F
:101F3800FFF72AFA7B689B6BFB60FFF73BFAFB68AD
:101F4800184607F11007BD4680BD00BF80B584B0B4
:101F580000AF78607B68002B02D1FFF745FAFEE7F7
:101F68007B689B6BFB60FB68184607F11007BD4652
:101F780080BD00BF80B584B000AF78607B68FB602F
:101F8800FB68002B02D1FFF72FFAFEE7F86800F094
:101F9800C1F9FB681B68184602F062FAF86802F09B
:101FA8005FFA07F11007BD4680BD00BF80B483B05B
:101FB80000AF78607B6893F84C30184607F10C073F
:101FC800BD4680BC704700BF80B483B000AF786066
:101FD8000B46FB707B68FA7883F84C2007F10C07F6
:101FE800BD4680BC704700BF80B483B000AF786046
:101FF8007B6893F84D30184607F10C07BD4680BC46
:10200800704700BF80B584B000AFF860B9607A60EF
:10201800FB681B6C002B0DD1FB681B68002B55D18E
:10202800FB685B68184601F0DDFDFB684FF00002B5
:102038005A604BE07B68002B1AD1FB689A68FB68F2
:102048001B6C1046B9681A4606F04DFFFB689A6883
:10205800FB681B6CD218FB689A60FB689A68FB687F
:102068005B689A4232D3FB681A68FB689A602DE075
:10207800FB68DA68FB681B6C1046B9681A4606F0FC
:1020880032FFFB68DA68FB681B6CC3F10003D218E7
:10209800FB68DA60FB68DA68FB681B689A4208D25A
:1020A800FB685A68FB681B6CC3F10003D218FB6815
:1020B800DA607B68022B09D1FB689B6B002B05D08B
:1020C800FB689B6B03F1FF32FB689A63FB689B6BB1
:1020D80003F10102FB689A6307F11007BD4680BD52
:1020E80080B582B000AF786039607B681B68002BD0
:1020F80019D07B68DA687B681B6CD2187B68DA6059
:102108007B68DA687B685B689A4203D37B681A68E5
:102118007B68DA607B68DA687B681B6C3868114614
:102128001A4606F0E0FE07F10807BD4680BD00BF6D
:1021380080B582B000AF7860FFF726F914E07B68BD
:102148005B6A002B15D07B6803F12403184601F065
:1021580055F90346002B01D001F02CFA7B689B6CE3
:1021680003F1FF327B689A647B689B6C002BE6DC8A
:1021780000E000BF7B684FF0FF329A64FFF71AF95E
:10218800FFF702F914E07B681B69002B15D07B6808
:1021980003F11003184601F031F90346002B01D072
:1021A80001F008FA7B685B6C03F1FF327B685A64C4
:1021B8007B685B6C002BE6DC00E000BF7B684FF0BF
:1021C800FF325A64FFF7F6F807F10807BD4680BDED
:1021D80080B584B000AF7860FFF7D6F87B689B6B5A
:1021E800002B03D14FF00103FB6002E04FF0000326
:1021F800FB60FFF7DFF8FB68184607F11007BD46DC
:1022080080BD00BF80B584B000AF78607B68002BCC
:1022180002D1FFF7E9F8FEE77B689B6B002B03D13F
:102228004FF00103FB6002E04FF00003FB60FB6826
:10223800184607F11007BD4680BD00BF80B584B0C1
:1022480000AF7860FFF7A0F87B689A6B7B68DB6B60
:102258009A4203D14FF00103FB6002E04FF0000304
:10226800FB60FFF7A7F8FB68184607F11007BD46A3
:1022780080BD00BF80B584B000AF78607B68002B5C
:1022880002D1FFF7B1F8FEE77B689A6B7B68DB6BDE
:102298009A4203D14FF00103FB6002E04FF00003C4
:1022A800FB60FB68184607F11007BD4680BD00BFFC
:1022B80080B485B000AF786039604FF00003FB60F0
:1022C8001FE042F6D853C2F20103FA6853F83230DD
:1022D800002B12D142F6D853C2F20103FA683968CA
:1022E80043F8321042F6D852C2F20102FB684FEAB4
:1022F800C303D3187A685A6006E0FB6803F1010348
:10230800FB60FB68072BDCD907F11407BD4680BCCE
:10231800704700BF80B485B000AF78604FF000030D
:10232800FB6019E042F6D852C2F20102FB684FEA9C
:10233800C303D3185A687B689A4209D142F6D85326
:10234800C2F20103FA684FF0000143F8321006E0C8
:10235800FB6803F10103FB60FB68072BE2D907F177
:102368001407BD4680BC704780B584B000AF786064
:1023780039607B68FB60FFF707F8FB685B6CB3F1BB
:10238800FF3F03D1FB684FF000025A64FB689B6C67
:10239800B3F1FF3F03D1FB684FF000029A64FFF7E7
:1023A80009F8FB689B6B002B06D1FB6803F124033B
:1023B8001846396800F0F2FFF868FFF7B9FE07F130
:1023C8001007BD4680BD00BF80B58AB002AFF86077
:1023D800B9603B601346FB80FB68002B02D1FFF716
:1023E80003F8FEE7BB6A042B02D9FEF7FDFFFEE700
:1023F800FB881846396B01F05BFAB861BB69002BA2
:1024080000F0A380BB691A6BFB8803F1FF334FEA26
:102418008303D3187B617B6923F007037B617B69A6
:1024280003F00703002B02D0FEF7DEFFFEE7FB8870
:102438000093B869B968BA6A7B6B01F003F97869E7
:10244800F9683A68FEF7AAFE0246BB691A60FB6A99
:10245800002B02D0FB6ABA691A60FEF795FF40F2BA
:102468003013C2F200031B6803F1010240F230137B
:10247800C2F200031A6040F25803C2F200031B685C
:10248800002B0FD140F25803C2F20003BA691A6058
:1024980040F23013C2F200031B68012B18D101F07F
:1024A80021F915E040F23C13C2F200031B68002B2F
:1024B8000ED140F25803C2F200031B68DA6ABB6A05
:1024C8009A4205D840F25803C2F20003BA691A606A
:1024D80040F25013C2F200031B6803F1010240F2FC
:1024E8005013C2F200031A6040F25013C2F2000304
:1024F8001A68BB691A64BB69DA6A40F23813C2F217
:1025080000031B689A4206D9BB69DA6A40F238139D
:10251800C2F200031A60BB69DA6A13464FEA830302
:102528009B184FEA830340F25C02C2F200029A1839
:10253800BB6903F1040310461946FFF72DF84FF065
:102548000103FB61FEF736FF02E04FF0FF33FB614A
:10255800FB69012B11D140F23C13C2F200031B6846
:10256800002B0AD040F25803C2F200031B68DA6A53
:10257800BB6A9A4201D2FEF7F7FEFB69184607F1DB
:102588002007BD4680BD00BF80B584B000AF78602D
:10259800FEF7FAFE7B68002B05D140F25803C2F221
:1025A80000031B6800E07B68FB60FB6803F1040321
:1025B8001846FFF74FF8FB689B6A002B05D0FB68AD
:1025C80003F118031846FFF745F8FB6803F1040305
:1025D80040F20410C2F200001946FEF7DDFF40F297
:1025E8001813C2F200031B6803F1010240F218132A
:1025F800C2F200031A6040F25013C2F200031B68D3
:1026080003F1010240F25013C2F200031A60FEF710
:10261800D1FE40F23C13C2F200031B68002B09D024
:1026280040F25803C2F200031B68FA689A4201D1CB
:10263800FEF79AFE07F11007BD4680BD80B586B04B
:1026480000AF786039604FF000037B617B68002B36
:1026580002D1FEF7C9FEFEE73B68002B02D1FEF768
:10266800C3FEFEE700F0EEFA40F23413C2F20003B4
:102678001B683B617B681A683B68D318FB607B6802
:102688001A683B699A420CD97B681A68FB689A42B7
:1026980013D9FA683B699A420FD94FF001037B615D
:1026A8000BE07B681A68FB689A4203D8FA683B69B2
:1026B8009A4202D94FF001037B617B68FA681A607D
:1026C8007B69002B0CD040F25803C2F200031B6850
:1026D80003F104031846FEF7BDFFF86801F0A2F8FD
:1026E80000F0C2FAB860BB68002B01D1FEF73CFECF
:1026F80007F11807BD4680BD80B584B000AF78608B
:102708004FF00003FB607B68002B19D000F09AFAA9
:1027180040F23413C2F200031A687B68D318BB6016
:1027280040F25803C2F200031B6803F10403184681
:10273800FEF790FFB86801F075F800F095FAF860B8
:10274800FB68002B01D1FEF70FFE07F11007BD460D
:1027580080BD00BF80B584B000AF7860FEF714FE7E
:102768007B68002B05D140F25803C2F200031B68B6
:1027780000E07B68FB60FB68DB6ABB60FEF71AFE63
:10278800BB68184607F11007BD4680BD80B586B006
:1027980000AF786039604FF000037B613B68042B21
:1027A80002D9FEF721FEFEE73B68042B02D94FF061
:1027B80004033B60FEF7E8FD7B68002B05D140F27F
:1027C8005803C2F200031B6800E07B683B613B6969
:1027D8009B6CFB60FA683B689A427DD03A68FB685C
:1027E8009A4214D940F25803C2F200031B683A69AE
:1027F8009A4217D040F25803C2F200031B68DA6A03
:102808003B689A420ED84FF001037B610AE040F220
:102818005803C2F200031B683A699A4202D14FF08A
:1028280001037B613B69DB6ABB603B699A6C3B696E
:10283800DB6A9A4202D13B693A68DA623B693A68D4
:102848009A643B68C3F105023B699A613B6959691F
:10285800BA6813464FEA83039B184FEA830340F292
:102868005C02C2F200029B18994202D14FF00103A8
:1028780001E04FF00003002B29D03B6903F104036A
:102888001846FEF7E7FE3B69DA6A40F23813C2F2EF
:1028980000031B689A4206D93B69DA6A40F238138A
:1028A800C2F200031A603B69DA6A13464FEA8303EF
:1028B8009B184FEA830340F25C02C2F200029A18A6
:1028C8003B6903F1040310461946FEF765FE7B6970
:1028D800012B01D1FEF748FDFEF76CFD07F1180743
:1028E800BD4680BD80B584B000AF7860FEF74CFD72
:1028F8007B68002B05D140F25803C2F200031B6825
:1029080000E07B68FB60FB6803F104031846FEF7F0
:10291800A1FEFB689B6A002B05D0FB6803F1180336
:102928001846FEF797FEFB6803F1040340F21C10FB
:10293800C2F200001946FEF72FFEFEF73BFD40F2FB
:102948005803C2F200031B68FA689A421FD140F28A
:102958003C13C2F200031B68002B02D0FEF704FDF3
:1029680015E040F21C13C2F200031A6840F230135B
:10297800C2F200031B689A4207D140F25803C2F220
:1029880000034FF000021A6001E000F01BFC07F1A1
:102998001007BD4680BD00BF80B584B000AF786029
:1029A8004FF00003FB607B68BB607B68002B02D1A3
:1029B800FEF71AFDFEE7BB685A6940F21C13C2F223
:1029C80000039A4202D14FF0010301E04FF00003E7
:1029D800002B15D0BB689A6A40F2F003C2F20003DC
:1029E8009A420DD0BB689B6A002B02D14FF00103BD
:1029F80001E04FF00003002B02D04FF00103FB6011
:102A0800FB68184607F11007BD4680BD80B584B045
:102A180000AF78607B68FB607B68002B02D1FEF713
:102A2800E3FCFEE7FB68002B47D040F25803C2F2F4
:102A380000031B68FA689A423FD0FEF7A5FCF868C5
:102A4800FFF7AAFF0346012B35D1FB6803F1040306
:102A58001846FEF7FFFDFB68DA6A40F23813C2F247
:102A680000031B689A4206D9FB68DA6A40F23813F9
:102A7800C2F200031A60FB68DA6A13464FEA83035E
:102A88009B184FEA830340F25C02C2F200029A18D4
:102A9800FB6803F1040310461946FEF77DFDFB6849
:102AA800DA6A40F25803C2F200031B68DB6A9A42F2
:102AB80001D3FEF759FCFEF77DFC07F11007BD4670
:102AC80080BD00BF80B586B000AF78604FF00003CE
:102AD8007B617B683B617B68002B02D1FEF784FC3D
:102AE800FEE7FEF7F5FCFEF77FFCF8603869FFF7B4
:102AF80053FF0346012B49D140F24013C2F20003B1
:102B08001B68002B38D13B69DA6A40F25803C2F2DD
:102B180000031B68DB6A9A4234BF00230123DBB23F
:102B28007B613B6903F104031846FEF793FD3B699B
:102B3800DA6A40F23813C2F200031B689A4206D9D7
:102B48003B69DA6A40F23813C2F200031A603B6943
:102B5800DA6A13464FEA83039B184FEA830340F26D
:102B68005C02C2F200029A183B6903F104031046A2
:102B78001946FEF711FD09E03B6903F1180340F21D
:102B8800F000C2F200001946FEF706FDF868FEF7ED
:102B980035FC7B69184607F11807BD4680BD00BFA4
:102BA80080B586B004AF4FF0000300934FF00003E8
:102BB80001934FF0000302934FF00003039343F295
:102BC8002960C0F6000048F63071C0F600014FF0E9
:102BD80082024FF00003FFF7F7FB78607B68012B58
:102BE80002D101F047F878607B68012B12D1FEF71B
:102BF800FBFB40F23C13C2F200034FF001021A60E3
:102C080040F23413C2F200034FF000021A60FEF7DC
:102C180013FB05E07B68002B02D1FEF7E5FBFEE71E
:102C280007F10807BD4680BD80B500AFFEF7DCFBA5
:102C380040F23C13C2F200034FF000021A60FEF7A4
:102C48008DFB80BD80B400AF40F24013C2F2000398
:102C58001B6803F1010240F24013C2F200031A603C
:102C6800BD4680BC704700BF80B584B000AF4FF050
:102C78000003FB604FF00003BB6040F24013C2F258
:102C880000031B68002B02D1FEF7AEFBFEE7FEF740
:102C98007BFB40F24013C2F200031B6803F1FF32D2
:102CA80040F24013C2F200031A6040F24013C2F22D
:102CB80000031B68002B40F08D8040F23013C2F2F5
:102CC80000031B68002B00F0858043E040F2F0030E
:102CD800C2F20003DB68DB687B607B6803F11803E2
:102CE8001846FEF7B7FC7B6803F104031846FEF7A5
:102CF800B1FC7B68DA6A40F23813C2F200031B6841
:102D08009A4206D97B68DA6A40F23813C2F20003A5
:102D18001A607B68DA6A13464FEA83039B184FEA06
:102D2800830340F25C02C2F200029A187B6803F146
:102D3800040310461946FEF72FFC7B68DA6A40F256
:102D48005803C2F200031B68DB6A9A4202D34FF0B1
:102D58000103BB6040F2F003C2F200031B68002BC2
:102D6800B4D140F24413C2F200031B68002B1BD0FD
:102D780013E000F003F90346002B02D04FF00103E3
:102D8800BB6040F24413C2F200031B6803F1FF3238
:102D980040F24413C2F200031A6040F24413C2F234
:102DA80000031B68002BE4D1BB68012B06D040F25E
:102DB8004813C2F200031B68012B0BD14FF001032B
:102DC800FB6040F24813C2F200034FF000021A60A1
:102DD800FEF7CAFAFEF7EEFAFB68184607F1100785
:102DE800BD4680BD80B582B000AFFEF7CDFA40F297
:102DF8003413C2F200031B687B60FEF7DBFA7B68C2
:102E0800184607F10807BD4680BD00BF80B582B0EF
:102E180000AFFEF75DFBFEF7E7FA786040F2341387
:102E2800C2F200031B683B607868FEF7E7FA3B686C
:102E3800184607F10807BD4680BD00BF80B400AF43
:102E480040F23013C2F200031B681846BD4680BC2E
:102E5800704700BF80B586B000AFF860B9607A608F
:102E68004FF000037B614FF005033B61FFF7EAFE7B
:102E780040F23013C2F200031B68BA689A4274D356
:102E88003B6903F1FF333B617B694FEA4313FA68FF
:102E9800D1183A6913464FEA83039B184FEA830314
:102EA80040F25C02C2F200029B18084619464FF035
:102EB800010200F035FD03467A69D3187B613B694E
:102EC800002BDDD17B694FEA4313FA68D21840F230
:102ED800E803C2F200031B68104619464FF00202CD
:102EE80000F01EFD03467A69D3187B617B694FEABF
:102EF8004313FA68D21840F2EC03C2F200031B68CD
:102F0800104619464FF0020200F00AFD03467A699E
:102F1800D3187B617B694FEA4313FA68D3181846C4
:102F280040F20411C2F200014FF0040200F0F8FC74
:102F380003467A69D3187B617B694FEA4313FA68C1
:102F4800D318184640F21C11C2F200014FF00302D8
:102F580000F0E6FC03467A69D3187B617B68002B96
:102F680003D07B684FF000021A60FFF77DFE7B6993
:102F7800184607F11807BD4680BD00BF80B586B06A
:102F880000AF4FF000037B6140F24013C2F2000330
:102F98001B68002B40F0F98040F23413C2F20003A2
:102FA8001B6803F1010240F23413C2F200031A60F5
:102FB80040F23413C2F200031B683B613B69002BEB
:102FC80052D140F2E803C2F200031B681B68002BD1
:102FD80002D0FEF709FAFEE740F2E803C2F2000366
:102FE8001B68FB6040F2EC03C2F200031A6840F26F
:102FF800E803C2F200031A6040F2EC03C2F20003D5
:10300800FA681A6040F24C13C2F200031B6803F11D
:10301800010240F24C13C2F200031A6040F2E803C6
:10302800C2F200031B681B68002B02D14FF001039A
:1030380001E04FF00003002B07D040F21C03C2F25E
:1030480000034FF0FF321A600EE040F2E803C2F2CC
:1030580000031B68DB68DB68BB60BB685A6840F22A
:103068001C03C2F200031A6040F21C03C2F2000300
:103078001B683A699A4270D300E000BF40F2E80347
:10308800C2F200031B681B68002B02D14FF001033A
:1030980001E04FF00003002B07D040F21C03C2F2FE
:1030A80000034FF0FF321A6057E040F2E803C2F223
:1030B80000031B68DB68DB68BB60BB685B687B6020
:1030C8003A697B689A4206D240F21C03C2F20003B6
:1030D8007A681A6041E0BB6803F104031846FEF7FA
:1030E800B9FABB689B6A002B05D0BB6803F11803CB
:1030F8001846FEF7AFFABB68DA6A40F23813C2F234
:1031080000031B689A4206D9BB68DA6A40F2381392
:10311800C2F200031A60BB68DA6A13464FEA8303F7
:103128009B184FEA830340F25C02C2F200029A182D
:10313800BB6803F1040310461946FEF72DFABB6875
:10314800DA6A40F25803C2F200031B68DB6A9A424B
:1031580093D34FF001037B618FE740F25803C2F22B
:1031680000031B68D96A40F25C02C2F200020B46F7
:103178004FEA83035B184FEA8303D3181B68012BBC
:1031880011D94FF001037B610DE040F24413C2F204
:1031980000031B6803F1010240F24413C2F200036A
:1031A8001A60FDF709FA40F24413C2F200031B68E3
:1031B800002B01D1FDF700FA7B69184607F11807C3
:1031C800BD4680BD80B582B000AF40F24013C2F268
:1031D80000031B68002B07D040F24813C2F200031B
:1031E8004FF001021A6093E040F25803C2F2000364
:1031F8001B681A6840F25803C2F200031B681B6B75
:103208009A420FD840F25803C2F200031A6840F2FB
:103218005803C2F200031B6803F134031046194631
:10322800FDF7DCF940F25803C2F200031B681B6B80
:10323800184648F63871C0F600014FF0140205F040
:1032480043FE0346002B26D040F25803C2F2000387
:103258001A6840F25803C2F200031B6803F13403F2
:1032680010461946FDF7BAF915E040F23813C2F2D4
:1032780000031B68002B02D1FEF7B6F8FEE740F208
:103288003813C2F200031B6803F1FF3240F238130F
:10329800C2F200031A6040F23813C2F20003196840
:1032A80040F25C02C2F200020B464FEA83035B184D
:1032B8004FEA8303D3181B68002BD6D040F238138B
:1032C800C2F200031A6813464FEA83039B184FEAB9
:1032D800830340F25C02C2F200029B187B607B68A9
:1032E8005B685A687B685A607B685A687B6803F138
:1032F80008039A4204D17B685B685A687B685A6005
:103308007B685B68DA6840F25803C2F200031A600F
:1033180007F10807BD4680BD80B584B000AF78606E
:1033280039607B68002B02D1FEF75EF8FEE740F2B9
:103338005803C2F200031B6803F1180378681946A2
:10334800FEF74EF940F25803C2F200031B6803F17E
:1033580004031846FEF77EF93B68B3F1FF3F0ED130
:1033680040F25803C2F200031B6803F1040340F261
:103378001C10C2F200001946FEF70EF90AE040F2EE
:103388003413C2F200031A683B68D318FB60F8686C
:1033980000F048FA07F11007BD4680BD80B584B03B
:1033A80000AF786039607B68002B02D1FEF71CF80B
:1033B800FEE740F25803C2F200031B6803F118034A
:1033C80078681946FEF7E8F840F25803C2F200039D
:1033D8001B6803F104031846FEF73CF940F2341366
:1033E800C2F200031A683B68D318FB60F86800F063
:1033F80019FA07F11007BD4680BD00BF80B584B03B
:1034080000AF78607B68DB68DB68BB60BB68002B5B
:1034180002D1FDF7E9FFFEE7BB6803F11803184680
:10342800FEF718F940F24013C2F200031B68002BA4
:103438002AD1BB6803F104031846FEF70BF9BB68F1
:10344800DA6A40F23813C2F200031B689A4206D9BE
:10345800BB68DA6A40F23813C2F200031A60BB682C
:10346800DA6A13464FEA83039B184FEA830340F254
:103478005C02C2F200029A18BB6803F1040310460A
:103488001946FEF789F809E0BB6803F1180340F212
:10349800F000C2F200001946FEF77EF8BB68DA6A4F
:1034A80040F25803C2F200031B68DB6A9A4203D356
:1034B8004FF00103FB6002E04FF00003FB60FB6884
:1034C800184607F11007BD4680BD00BF80B582B021
:1034D80000AF78607B68002B02D1FDF785FFFEE71F
:1034E80040F24C13C2F200031A687B681A6040F27B
:1034F8003413C2F200031A687B685A6007F10807A0
:10350800BD4680BD80B584B000AF786039607B6807
:10351800002B02D1FDF768FFFEE73B68002B02D1C4
:10352800FDF762FFFEE7FDF72FFF40F23413C2F20A
:1035380000031B68BB603B681B68B3F1FF3F03D106
:103548004FF00003FB602CE07B681A6840F24C13D4
:10355800C2F200031B689A4208D07B685A68BB68AD
:103568009A4203D84FF00103FB601AE07B685B685E
:10357800BA68D21A3B681B689A420FD23B681A682D
:103588007B685968BB68CB1AD2183B681A607868A0
:10359800FFF79CFF4FF00003FB6002E04FF00103D0
:1035A800FB60FDF707FFFB68184607F11007BD46EB
:1035B80080BD00BF80B400AF40F24813C2F20003E0
:1035C8004FF001021A60BD4680BC704780B485B0D8
:1035D80000AF78607B68002B05D07B68BB60BB6858
:1035E8005B6CFB6002E04FF00003FB60FB68184671
:1035F80007F11407BD4680BC704700BF80B485B092
:1036080000AF786039607B68002B04D07B68FB6072
:10361800FB683A685A6407F11407BD4680BC7047D6
:1036280080B582B000AF786000F0AEF840F25C037D
:10363800C2F200031B68012B01D9FDF795FEFCF7C8
:10364800C7FFF1E780B586B000AFF860B9607A606F
:103658003B604FF000037B6113E0BA687B69D318C5
:103668001A78F9687B69CB1803F130031A71BA68C4
:103678007B69D3181B78002B07D07B6903F1010302
:103688007B617B69092BE8D900E000BFFB684FF03C
:10369800000283F83D207B68042B02D94FF0040315
:1036A8007B60FB687A68DA62FB687A689A64FB6810
:1036B80003F104031846FDF761FFFB6803F11803E3
:1036C8001846FDF75BFFFB68FA681A617B68C3F16F
:1036D8000502FB689A61FB68FA685A6207F11807E5
:1036E800BD4680BD80B582B000AF4FF000037B605F
:1036F80012E07A6813464FEA83039B184FEA830364
:1037080040F25C02C2F200029B181846FDF716FF51
:103718007B6803F101037B607B68042BE9D940F2E5
:10372800C000C2F20000FDF709FF40F2D400C2F267
:103738000000FDF703FF40F2F000C2F20000FDF7C1
:10374800FDFE40F20410C2F20000FDF7F7FE40F261
:103758001C10C2F20000FDF7F1FE40F2E803C2F2CD
:10376800000340F2C002C2F200021A6040F2EC0309
:10377800C2F2000340F2D402C2F200021A6007F15A
:103788000807BD4680BD00BF80B582B000AF3DE0F0
:10379800FFF758FA40F20413C2F200031B68002B2B
:1037A80014BF00230123DBB27B60FFF75DFA7B685F
:1037B800002B2BD1FDF7E8FD40F20413C2F2000301
:1037C800DB68DB683B603B6803F104031846FDF7E0
:1037D80041FF40F23013C2F200031B6803F1FF32CD
:1037E80040F23013C2F200031A6040F21813C2F21A
:1037F80000031B6803F1FF3240F21813C2F2000302
:103808001A60FDF7D7FD386800F034F940F2181354
:10381800C2F200031B68002BBAD107F10807BD46A6
:1038280080BD00BF80B582B000AF786040F2580319
:10383800C2F200031B687A685A6040F23413C2F27D
:1038480000031B687A689A4210D240F2EC03C2F275
:1038580000031A6840F25803C2F200031B6803F120
:10386800040310461946FDF7BBFE1DE040F2E803CD
:10387800C2F200031A6840F25803C2F200031B6840
:1038880003F1040310461946FDF7AAFE40F21C0393
:10389800C2F200031B687A689A4205D240F21C0300
:1038A800C2F200037A681A6007F10807BD4680BDB6
:1038B80080B584B000AF03463960FB804FF04C0000
:1038C80000F01CFDF860FB68002B23D03B68002B40
:1038D80007D1FB884FEA8303184600F00FFD034623
:1038E80000E03B68FA681363FB681B6B002B06D18A
:1038F800F86800F0B5FD4FF00003FB600AE0FB68D4
:103908001A6BFB884FEA830310464FF0A5011A464D
:1039180005F0F2FAFB68184607F11007BD4680BDAE
:1039280090B58BB000AFF860B9601346FB714FF0EB
:1039380000037B62BB681B68002B78D0BB683B62C6
:103948003B6A5B685A683B6A5A603B6A5A683B6ADA
:1039580003F108039A4204D13B6A5B685A683B6AE0
:103968005A603B6A5B68DB68FB61BB68BB61BB692B
:103978005B685A68BB695A60BB695A68BB6903F1DE
:1039880008039A4204D1BB695B685A68BB695A60EC
:10399800BB695B68DB687B617B6A4FEA4313FA6843
:1039A800D3187A691A607B6A4FEA4313FA68D31806
:1039B8007A6902F134025A607B6A4FEA4313FA6863
:1039C800D3187A69126C9A607B6A4FEA4313FA68D3
:1039D800D318FA791A737B6A4FEA4313FA68D31833
:1039E8007A69D26A1A617B6A4FEA4313FA68D31874
:1039F8007A69926C5A617B6A4FEA4313FA68D31862
:103A08004FF000029A617B6A4FEA4313FA68D418B0
:103A18007B691B6B184600F011F80346A3837B6A89
:103A280003F101037B627A69FB699A429DD17B6A43
:103A3800184607F12C07BD4690BD00BF90B482B070
:103A480000AF78604FF0000406E07B6803F10103E3
:103A58007B6004F101039CB27B681B78A52BF4D032
:103A68004FEA94039CB22346184607F10807BD465F
:103A780090BC704780B582B000AF78607B681B6BE4
:103A8800184600F0EDFC786800F0EAFC07F108073A
:103A9800BD4680BD80B483B000AF40F25803C2F287
:103AA80000031B687B607B68184607F10C07BD465E
:103AB80080BC704780B483B000AF40F23C13C2F2C0
:103AC80000031B68002B03D14FF000037B600DE05F
:103AD80040F24013C2F200031B68002B03D14FF0E1
:103AE80001037B6002E04FF002037B607B681846AD
:103AF80007F10C07BD4680BC704700BF80B584B095
:103B080000AF78607B68FB607B68002B66D0FB6841
:103B1800DA6A40F25803C2F200031B68DB6A9A4271
:103B28005CD240F25803C2F200031B68DB6AC3F19F
:103B38000502FB689A61FB685969FB68DA6A1346F3
:103B48004FEA83039B184FEA830340F25C02C2F2F8
:103B580000029B18994202D14FF0010301E04FF097
:103B68000003002B32D0FB6803F104031846FDF76D
:103B780071FD40F25803C2F200031B68DA6AFB6861
:103B8800DA62FB68DA6A40F23813C2F200031B6893
:103B98009A4206D9FB68DA6A40F23813C2F2000387
:103BA8001A60FB68DA6A13464FEA83039B184FEAE8
:103BB800830340F25C02C2F200029A18FB6803F128
:103BC800040310461946FDF7E7FC07E040F25803E6
:103BD800C2F200031B68DA6AFB68DA6207F11007B1
:103BE800BD4680BD80B584B000AF78607B68FB605F
:103BF8007B68002B39D0FB68DA6AFB689B6C9A42B9
:103C080033D0FB6803F104031846FDF723FDFB6876
:103C18009A6CFB68DA62FB68DB6AC3F10502FB6831
:103C28009A61FB68DA6A40F23813C2F200031B6833
:103C38009A4206D9FB68DA6A40F23813C2F20003E6
:103C48001A60FB68DA6A13464FEA83039B184FEA47
:103C5800830340F25C02C2F200029A18FB6803F187
:103C6800040310461946FDF797FC07F11007BD46F7
:103C780080BD00BF80B586B004AF4FF000037B6005
:103C880000F0DCFA40F28413C2F200031B68002B38
:103C98001AD04FF0020300934FF0000301934FF046
:103CA800000302934FF00003039343F68160C0F6CC
:103CB800000048F64C71C0F600014FF482724FF0D4
:103CC8000003FEF781FB78607B68002B02D1FDF7CB
:103CD8008BFBFEE77B68184607F10807BD4680BDE9
:103CE80080B586B000AFF860B9607A603B60BB68A9
:103CF800002B08D14FF000037B61BB68002B21D15A
:103D0800FDF772FBFEE74FF0280000F0F7FA786144
:103D18007B69002B16D000F091FA7B69FA681A606B
:103D28007B69BA689A617B697A68DA617B693A6803
:103D38001A627B693A6A5A627B6903F1040318467E
:103D4800FDF71CFC7B69184607F11807BD4680BDC6
:103D580080B588B000AFF860B9607A603B604FF01A
:103D68000003FB6140F28413C2F200031B68002BBE
:103D78003DD0BB683B617B687B61FB68BB613B688E
:103D8800002B25D1FFF796FE0346012B0FD140F2F9
:103D98008413C2F200031A6807F11003104619468B
:103DA800BA6A4FF00003FDF709FEF8611FE040F220
:103DB8008413C2F200031A6807F11003104619466B
:103DC8004FF000024FF00003FDF7F8FDF8610EE038
:103DD80040F28413C2F200031A6807F11003104678
:103DE80019463A684FF00003FDF7A4FEF861FB6935
:103DF800184607F12007BD4680BD00BF80B586B0D4
:103E080002AF7860396040F27C13C2F200031B688D
:103E1800DB68DB68FB60FB6803F104031846FDF709
:103E280019FCFB68DB69012B1ED1FB689A697B686A
:103E3800D318F86819463A687B6800F0BFF803465B
:103E4800012B11D14FF000030093F8684FF00001E7
:103E58007A684FF00003FFF77BFFB860BB68002B60
:103E680002D1FDF7C1FAFEE7FB685B6AF86898477C
:103E780007F11007BD4680BD80B584B000AF7860FB
:103E880007F10803184600F043F8F860BB68F868C3
:103E9800194600F003F800F0DBF8F1E780B584B0CC
:103EA80000AF78603960FEF7CDFE07F108031846C9
:103EB80000F058F8F860BB68002B21D13B68002B54
:103EC8000AD17A68FB689A4206D8FEF7CDFE786870
:103ED800F968FFF793FF17E040F28413C2F200037A
:103EE8001A687968FB68CB1A10461946FEF73CFA3F
:103EF800FEF7BAFE0346002B05D1FDF735FA02E0BE
:103F0800FEF7B2FE00E000BF07F11007BD4680BD16
:103F180080B485B000AF786040F27C13C2F2000331
:103F28001B681B68002B14BF00230123DBB21A4651
:103F38007B681A607B681B68002B08D140F27C13F1
:103F4800C2F200031B68DB681B68FB6002E04FF0ED
:103F58000003FB60FB68184607F11407BD4680BCE8
:103F6800704700BF80B584B000AF7860FEF73AFFB5
:103F7800F86040F28813C2F200031B68FA689A429C
:103F88000CD240F28813C2F200031B68184600F0F6
:103F9800E1F87B684FF001021A6003E07B684FF09C
:103FA80000021A6040F28813C2F20003FA681A602D
:103FB800FB68184607F11007BD4680BD80B586B07E
:103FC80000AFF860B9607A603B604FF000037B6136
:103FD800FB68BA685A60FB68FA681A61BA687B6855
:103FE8009A4217D87A683B68D21AFB689B699A424A
:103FF80003D34FF001037B6124E040F28013C2F247
:1040080000031A68FB6803F1040310461946FDF71C
:10401800E7FA17E07A683B689A4207D2BA683B68C1
:104028009A4203D34FF001037B610BE040F27C130B
:10403800C2F200031A68FB6803F10403104619462C
:10404800FDF7CEFA7B69184607F11807BD4680BD13
:1040580080B58AB002AF66E03B69FB61FB695B69CA
:10406800002B05D0FB6903F104031846FDF7F2FAAB
:1040780007F104031846FFF775FFB861BB68032B07
:104088004ED801A252F823F0A140000829410008A7
:10409800F740000821410008FA68FB699B69D218BB
:1040A800FB68F8691146BA69FFF788FF0346012BD8
:1040B80038D1FB695B6AF8699847FB69DB69012BB2
:1040C80030D1FA68FB699B69D3184FF0000200925F
:1040D800F8694FF000011A464FF00003FFF738FE69
:1040E80078617B69002B1DD1FDF77EF9FEE7FA6840
:1040F800FB699A61FB699B69002B02D1FDF774F992
:10410800FEE7FB699A69BB69D318F8691946BA6969
:10411800BB69FFF753FF06E0F86900F0A1F902E078
:1041280000BF00E000BF40F28413C2F200031A6827
:1041380007F10803104619464FF000024FF000033C
:10414800FDF76CFD0346002B86D107F12007BD461D
:1041580080BD00BF80B58AB002AF78604BE040F206
:104168007C13C2F200031B68DB681B68FB6140F22A
:104178007C13C2F200031B68DB68DB68BB61BB69A8
:1041880003F104031846FDF765FABB695B6AB86971
:104198009847BB69DB69012B2DD1BB699A69FB691B
:1041A800D3187B617A69FB699A4212D9BB697A692B
:1041B8005A60BB69BA691A6140F27C13C2F2000303
:1041C8001A68BB6903F1040310461946FDF708FA9B
:1041D80011E04FF000030093B8694FF00001FA694D
:1041E8004FF00003FFF7B4FD38613B69002B02D1A3
:1041F800FDF7FAF8FEE740F27C13C2F200031B68F1
:104208001B68002BABD140F27C13C2F200031B6881
:10421800FB6040F28013C2F200031A6840F27C137C
:10422800C2F200031A6040F28013C2F20003FA6877
:104238001A6007F12007BD4680BD00BF80B500AFFA
:10424800FDF7A2F840F28413C2F200031B68002BAA
:104258002BD140F25410C2F20000FDF76FF940F282
:104268006810C2F20000FDF769F940F27C13C2F24F
:10427800000340F25412C2F200021A6040F28013A6
:10428800C2F2000340F26812C2F200021A604FF054
:104298000A004FF00C014FF00002FDF767FA0246E2
:1042A80040F28413C2F200031A60FDF783F880BD60
:1042B80080B584B000AF78607B68FB60FDF764F878
:1042C800FB685B69002B0CBF00230123DBB2BB60DA
:1042D800FDF770F8BB68184607F11007BD4680BDAA
:1042E80080B485B000AF78607B68FB60FB681B6AB0
:1042F800184607F11407BD4680BC704780B586B0E4
:1043080000AF78604FF00003FB60FEF79BFC42F6BD
:104318009453C2F201031B68002B01D100F00EF97F
:1043280042F69853C2F201031A687B681340002BC7
:1043380040F088807B68002B12D048F65473C0F692
:1043480000031B887A68D3187B607B6803F0070337
:10435800002B05D07B6823F0070303F108037B607B
:104368007B68002B6ED040F22003C2F200031B686A
:104378007A689A4266D842F68C53C2F201033B61CE
:1043880042F68C53C2F201031B687B6104E07B692F
:104398003B617B691B687B617B695A687B689A42D1
:1043A80003D27B691B68002BF1D142F69453C2F209
:1043B80001031B687A699A4244D03B691A6848F637
:1043C8005473C0F600031B88D318FB607B691A6816
:1043D8003B691A607B695A687B68D21A48F654733D
:1043E800C0F600031B884FEA43039A420FD97A6943
:1043F8007B68D318BB607B695A687B68D21ABB6834
:104408005A607B697A685A60B86800F013F940F21C
:104418002003C2F200031A687B695B68D21A40F273
:104428002003C2F200031A607B695A6842F6985367
:10443800C2F201031B681A437B695A607B694FF01B
:1044480000021A60FEF710FCFB68002B01D1FCF794
:10445800B9F8FB68184607F11807BD4680BD00BFCC
:1044680080B584B000AF78607B68FB607B68002B08
:104478004DD048F65473C0F600031B88C3F10003FF
:10448800FA68D318FB60FB68BB60BB685A6842F6E1
:104498009853C2F201031B681340002B02D1FCF7AA
:1044A800A3FFFEE7BB681B68002B02D0FCF79CFF4C
:1044B800FEE7BB685A6842F69853C2F201031B68CC
:1044C8001340002B23D0BB681B68002B1FD1BB688F
:1044D8005A6842F69853C2F201031B686FEA030355
:1044E8001A40BB685A60FEF7ADFBBB685A6840F2D9
:1044F8002003C2F200031B68D21840F22003C2F264
:1045080000031A60B86800F095F8FEF7ADFB07F1F4
:104518001007BD4680BD00BF80B400AF40F2200345
:10452800C2F200031B681846BD4680BC704700BF36
:1045380080B400AFBD4680BC704700BF80B584B072
:1045480000AF3B4B23F00703FB6042F68C53C2F2EB
:104558000103FA681A6042F68C53C2F201034FF065
:1045680000025A6048F65873C0F600031B68FA68E0
:10457800D318BB6048F65473C0F600031B88C3F118
:104588000003BA68D318BB6042F69453C2F2010321
:10459800BA681A6042F69453C2F201031B6803F02A
:1045A8000703002B02D0FCF71FFFFEE742F69453E7
:1045B800C2F201031B684FF000025A6042F694539E
:1045C800C2F201031B684FF000021A60FB687B60AF
:1045D80048F65873C0F600031A6848F65473C0F6D4
:1045E80000031B88D21A7B685A6042F69453C2F2C1
:1045F80001031A687B681A6040F22003C2F20003C4
:104608001A6848F65473C0F600031B88D21A40F2A1
:104618002003C2F200031A6042F69853C2F2010363
:104628004FF000421A6007F11007BD4680BD00BF79
:104638009401002080B485B000AF786042F68C53B6
:10464800C2F20103FB6002E0FB681B68FB60FB68C9
:104658001A687B689A42F7D3FB68BB60FB685B68A3
:10466800BA68D2187B689A4208D1FB685A687B6896
:104678005B68D218FB685A60FB687B607B68BB602C
:104688007B685B68BA68D218FB681B689A421ED1BF
:10469800FB681A6842F69453C2F201031B689A42F7
:1046A8000DD07B685A68FB681B685B68D2187B680A
:1046B8005A60FB681B681A687B681A600BE042F650
:1046C8009453C2F201031A687B681A6003E0FB681E
:1046D8001A687B681A60FA687B689A4202D0FB689D
:1046E8007A681A6007F11407BD4680BC704700BF9E
:1046F80080B483B000AF78604FF46D43CEF200030E
:104708007A6842F0BF6242F40032DA6007F10C07BF
:10471800BD4680BC704700BF80B485B000AF7860EC
:104728004FF00003FB734FF00003BB734FF00F0310
:104738007B737B68DB78002B45D04FF46D43CEF25A
:104748000003DB686FEA030303F4E0634FEA132313
:10475800FB73FB7BC3F10403BB737A7BFB7B42FADD
:1047680003F37B737B685B781A46BB7B02FA03F31F
:10477800FB737B689A787B7B1340DAB2FB7B13432D
:10478800FB73FB7B4FEA0313FB734FF46143CEF2D9
:1047980000037A6812789B18FA7B83F800234FF499
:1047A8006143CEF200037A6812784FEA5212D2B20D
:1047B8007968097801F01F014FF0010000FA01F152
:1047C80043F8221014E04FF46143CEF200037A68F4
:1047D80012784FEA5212D2B27968097801F01F01B3
:1047E8004FF0010000FA01F102F1200243F8221013
:1047F80007F11407BD4680BC704700BF80B483B082
:1048080000AF786039604FF46D43CEF200033A6828
:1048180022F0604222F07F0279680A439A6007F129
:104828000C07BD4680BC704780B483B000AF024619
:104838000B46FA71BB71BB79002B0CD04FF46D435A
:10484800CEF200034FF46D42CEF200021169FA79FC
:104858000A431A610DE04FF46D43CEF200034FF4A2
:104868006D42CEF200021169FA796FEA02020A403B
:104878001A6107F10C07BD4680BC704780B483B04D
:1048880000AF78607B68042B0CD14EF21003CEF297
:1048980000034EF21002CEF20002126842F0040247
:1048A8001A600BE04EF21003CEF200034EF2100233
:1048B800CEF20002126822F004021A6007F10C0717
:1048C800BD4680BC704700BF80B500AF4FF4807014
:1048D8004FF0010101F072FD4FF480704FF00001BC
:1048E80001F06CFD80BD00BF80B485B000AF78607A
:1048F80039604FF00003FB604FF00003FB727B68E8
:104908005B68FB60FB6823F0407323F48073FB60F3
:104918003B681B794FEA03223B681B681343FA681C
:104928001343FB607B68FA685A607B689B68FB608E
:10493800FA684FF2FD73CCF2FF031340FB603B684B
:104948001A693B68DB681A433B689B681A433B68F3
:104958005B794FEA43031343FA681343FB607B68B0
:10496800FA689A607B68DB6AFB60FB6823F4700373
:10497800FB603B681B7D03F1FF33DAB2FB7A13431C
:10498800FB72FB7A4FEA0353FA681343FB607B68B8
:10499800FA68DA6207F11407BD4680BC704700BFA9
:1049A80080B483B000AF78607B684FF000021A6073
:1049B8007B684FF000021A717B684FF000025A7151
:1049C8007B684FF000029A607B684FF00002DA6063
:1049D8007B684FF000021A617B684FF001021A757C
:1049E80007F10C07BD4680BC704700BF80B485B096
:1049F80000AF78604FF00003FB604FF40C53C4F233
:104A080001035B68FB60FA6843F2E003CFF6FC73CE
:104A18001340FB607B681A687B685B681A437B6895
:104A28009B681A437B68DB681343FA681343FB608F
:104A38004FF40C53C4F20103FA685A6007F11407E3
:104A4800BD4680BC704700BF80B483B000AF7860BB
:104A58007B684FF000021A607B684FF000025A60D2
:104A68007B684FF000029A607B684FF00002DA60C2
:104A780007F10C07BD4680BC704700BF80B483B007
:104A880000AF78600B46FB70FB78002B06D07B6884
:104A98009B6843F001027B689A6005E07B689B682D
:104AA80023F001027B689A6007F10C07BD4680BCC1
:104AB800704700BF80B485B000AF786039604FF0B0
:104AC8000003FB607B685B68FB60FB6823F44003C2
:104AD80023F40073FB60FA683B681343FB607B6850
:104AE800FA685A6007F11407BD4680BC704700BFDA
:104AF80080B483B000AF786013460A467A803B8062
:104B08007A887B685A623A887B689A6207F10C0750
:104B1800BD4680BC704700BF80B485B000AF7860E8
:104B28000B46FB704FF00003FB607B685B68FB6023
:104B3800FB6823F01F03FB60FB78FA681343FB60F4
:104B48007B68FA685A6007F11407BD4680BC704755
:104B580080B483B000AF0346FB71FB79002B0CD007
:104B68004FF40C53C4F201034FF40C52C4F2010287
:104B7800526842F400025A600BE04FF40C53C4F23E
:104B880001034FF40C52C4F20102526822F40002ED
:104B98005A6007F10C07BD4680BC704780B483B0EB
:104BA80000AF0346FB71FB79002B0CD04FF40C537C
:104BB800C4F201034FF40C52C4F20102526842F4E9
:104BC80080025A600BE04FF40C53C4F201034FF417
:104BD8000C52C4F20102526822F480025A6007F1B2
:104BE8000C07BD4680BC704780B485B000AF7860C4
:104BF800F970BA707B704FF00003FB604FF0000350
:104C0800BB60FB78092B27D97B68DB68FB60FA78E7
:104C180013464FEA43039B18A3F11E034FF0070204
:104C280002FA03F3BB60BB686FEA0303FA68134038
:104C3800FB607978FA7813464FEA43039B18A3F18F
:104C48001E0301FA03F3BB60FA68BB681343FB60F9
:104C58007B68FA68DA6022E07B681B69FB60FA7897
:104C680013464FEA43039B184FF0070202FA03F377
:104C7800BB60BB686FEA0303FA681340FB6079788E
:104C8800FA7813464FEA43039B1801FA03F3BB6013
:104C9800FA68BB681343FB607B68FA681A61BB78E3
:104CA800062B27D87B685B6BFB60BB7803F1FF3270
:104CB80013464FEA83039B184FF01F0202FA03F3CF
:104CC800BB60BB686FEA0303FA681340FB60F978BE
:104CD800BB7803F1FF3213464FEA83039B1801FAAE
:104CE80003F3BB60FA68BB681343FB607B68FA6830
:104CF8005A6351E0BB780C2B27D87B681B6BFB6091
:104D0800BA7813464FEA83039B18A3F123034FF0A5
:104D18001F0202FA03F3BB60BB686FEA0303FA6879
:104D28001340FB60F978BA7813464FEA83039B185F
:104D3800A3F1230301FA03F3BB60FA68BB681343CA
:104D4800FB607B68FA681A6326E07B68DB6AFB60B5
:104D5800BA7813464FEA83039B18A3F141034FF037
:104D68001F0202FA03F3BB60BB686FEA0303FA6829
:104D78001340FB60F978BA7813464FEA83039B180F
:104D8800A3F1410301FA03F3BB60FA68BB6813435C
:104D9800FB607B68FA68DA6207F11407BD4680BCDD
:104DA800704700BF80B483B000AF78607B689B68B1
:104DB80043F080427B689A6007F10C07BD4680BCCF
:104DC800704700BF80B485B000AF78604FF0000333
:104DD800FB737B689B6803F48003002B03D04FF0C0
:104DE8000103FB7302E04FF00003FB73FB7B1846E3
:104DF80007F11407BD4680BC704700BF80B483B07C
:104E080000AF78600B46FB70FB78002B06D07B6800
:104E18009B6843F480627B689A6005E07B689B68C6
:104E280023F480627B689A6007F10C07BD4680BC5A
:104E3800704700BF80B483B000AF78600B46FB704A
:104E4800FB78002B06D07B689B6843F002027B68E6
:104E58009A6005E07B689B6823F002027B689A6091
:104E680007F10C07BD4680BC704700BF80B485B011
:104E780000AF78600B46FB704FF00003FB604FF00B
:104E88000003BB607B685B68FB60FB6823F46043DE
:104E9800FB60FB7803F1FF33BB60BB684FEA433329
:104EA800FA681343FB607B68FA685A6007F11407D5
:104EB800BD4680BC704700BF80B483B000AF786047
:104EC8000B46FB70FB78002B06D07B685B6843F4CD
:104ED80000627B685A6005E07B685B6823F40062C7
:104EE8007B685A6007F10C07BD4680BC704700BF5D
:104EF80080B483B000AF78607B68DB6C9BB21846E7
:104F080007F10C07BD4680BC704700BF80B400AFF6
:104F180042F20833C4F201031B681846BD4680BC40
:104F2800704700BF80B483B000AF78600B46FB7059
:104F3800FB78002B06D07B689B6843F480727B6803
:104F48009A6005E07B689B6823F480727B689A60AE
:104F580007F10C07BD4680BC704700BF80B483B022
:104F680000AF78600B46FB70FB78002B06D07B689F
:104F78009B6843F400727B689A6005E07B689B68D5
:104F880023F400727B689A6007F10C07BD4680BC69
:104F9800704700BF80B483B000AF0346FB71FB7954
:104FA800002B0CD04FF40C53C4F201034FF40C52F5
:104FB800C4F20102526842F400525A600BE04FF406
:104FC8000C53C4F201034FF40C52C4F201025268AC
:104FD80022F400525A6007F10C07BD4680BC7047A6
:104FE80080B487B000AF7860F970BA707B704FF00A
:104FF80000037B614FF000033B614FF00003FB604F
:10500800FB78092B27D97B68DB687B61FA78134624
:105018004FEA43039B18A3F11E034FF0070202FA5D
:1050280003F33B613B696FEA03037A6913407B61D1
:105038007978FA7813464FEA43039B18A3F11E03C5
:1050480001FA03F33B617A693B6913437B617B682F
:105058007A69DA6022E07B681B697B61FA7813461B
:105068004FEA43039B184FF0070202FA03F33B6130
:105078003B696FEA03037A6913407B617978FA78B0
:1050880013464FEA43039B1801FA03F33B617A691D
:105098003B6913437B617B687A691A617B689B6B08
:1050A8007B617B6903F440134FEA1353FB60FB6891
:1050B800DBB26FEA0303DAB2BB78D318DBB203F1D1
:1050C8000303DBB21A4613464FEA83039B184FF0DB
:1050D8001F0202FA03F33B613B696FEA03037A6933
:1050E80013407B61F978FB68DBB26FEA0303DAB23D
:1050F800BB78D318DBB203F10303DBB21A461346BD
:105108004FEA83039B1801FA03F33B617A693B6911
:1051180013437B617B687A699A6307F11C07BD4674
:1051280080BC704780B485B000AF78600B46FB70D8
:105138004FF00003FB604FF00003BB607B689B6B84
:10514800FB60FB6823F44013FB60FB7803F1FF333B
:10515800BB60BB684FEA0353FA681343FB607B6884
:10516800FA689A6307F11407BD4680BC704700BF10
:1051780080B485B000AF786013460A46FA703B8069
:105188004FF00003FB607B68FB60FA78FB68D3187C
:10519800FB60FB683A881A6007F11407BD4680BCBB
:1051A800704700BF80B485B000AF786039604FF0B9
:1051B8000003FB607B689B68FB60FB6823F470233B
:1051C800FB60FA683B681343FB607B68FA689A6087
:1051D80007F11407BD4680BC704700BF80B485B096
:1051E80000AF786039604FF00003FB607B689B6814
:1051F800FB60FB6823F44013FB60FA683B681343C9
:10520800FB607B68FA689A6007F11407BD4680BCAA
:10521800704700BF80B483B000AF78607B689B683C
:1052280043F480027B689A6007F10C07BD4680BC96
:10523800704700BF80B485B000AF78604FF00003BE
:10524800FB737B689B6803F48003002B03D04FF04B
:105258000103FB7302E04FF00003FB73FB7B18466E
:1052680007F11407BD4680BC704700BF80B483B007
:1052780000AF78600B46FB70FB78002B06D07B688C
:105288005B6843F480627B685A6005E07B685B6812
:1052980023F480627B685A6007F10C07BD4680BC26
:1052A800704700BF80B483B000AF78600B46FB70D6
:1052B800FB78002B06D07B685B6843F480527B68E0
:1052C8005A6005E07B685B6823F480527B685A600B
:1052D80007F10C07BD4680BC704700BF80B485B09D
:1052E80000AF78600B46FB704FF00003FB607B68F3
:1052F800FB60FA78FB68D31803F12803FB60FB68AE
:105308001B689BB2184607F11407BD4680BC70475E
:1053180080B485B000AF786013460A467A807B7007
:105328004FF00003FB607B88DBB2FB60FB684FF04B
:10533800010202FA03F3FB607B78002B06D07B683E
:105348005A68FB681A437B685A6007E07B685A68AA
:10535800FB686FEA03031A407B685A6007F1140779
:10536800BD4680BC704700BF80B485B000AF786090
:105378000B46FB704FF00003FB737B681A68FB78E1
:105388001340002B03D04FF00103FB7302E04FF0F2
:105398000003FB73FB7B184607F11407BD4680BC6E
:1053A800704700BF80B483B000AF78600B46FB70D5
:1053B800FB786FEA03027B681A6007F10C07BD46A9
:1053C80080BC704780B487B000AF78600B467B80A4
:1053D8004FF00003FB754FF000033B614FF00003F3
:1053E800FB607B884FEA13239BB23B617B685A685A
:1053F8007B88DBB24FF0010101FA03F31340FB6035
:105408007B681A683B691340002B06D0FB68002BA9
:1054180003D04FF00103FB7502E04FF00003FB756A
:10542800FB7D184607F11C07BD4680BC704700BFCE
:1054380080B485B000AF78600B467B804FF00003E6
:10544800FB737B884FEA13239BB2FB73FB7B6FEAEA
:1054580003027B681A6007F11407BD4680BC7047D9
:1054680080B582B000AF78607A684FF00003C4F26C
:1054780002039A420CD14FF001004FF0010100F0F5
:10548800F5FE4FF001004FF0000100F0EFFE9EE046
:105498007A684FF48063C4F202039A420CD14FF049
:1054A80002004FF0010100F0E1FE4FF002004FF062
:1054B800000100F0DBFE8AE07A684FF40063C4F272
:1054C80002039A420CD14FF004004FF0010100F0A2
:1054D800CDFE4FF004004FF0000100F0C7FE76E06B
:1054E8007A684FF44063C4F202039A420CD14FF039
:1054F80008004FF0010100F0B9FE4FF008004FF02E
:10550800000100F0B3FE62E07A684FF48053C4F201
:1055180002039A420CD14FF010004FF0010100F045
:10552800A5FE4FF010004FF0000100F09FFE4EE086
:105538007A684FF4A053C4F202039A420CD14FF098
:1055480020004FF0010100F091FE4FF020004FF0D5
:10555800000100F08BFE3AE07A684FF4C053C4F2C1
:1055680002039A420CD14FF040004FF0010100F0C5
:105578007DFE4FF040004FF0000100F077FE26E07E
:105588007A684FF4E053C4F202039A420CD14FF008
:1055980080004FF0010100F069FE4FF080004FF0ED
:1055A800000100F063FE12E07A684FF40053C4F281
:1055B80002039A420BD14FF480704FF0010100F0C2
:1055C80055FE4FF480704FF0000100F04FFE07F1D8
:1055D8000807BD4680BD00BF80B487B000AF7860C3
:1055E80039604FF000037B614FF000033B614FF0DF
:1055F8000003FB604FF000037B6186E07B694FF09E
:10560800010202FA03F33B613B681A683B691340E5
:10561800FB60FA683B699A4273D17B681A687B69B8
:105628004FEA43034FF0030101FA03F36FEA030360
:105638001A407B681A607B681A683B681B791946B0
:105648007B694FEA430301FA03F31A437B681A6044
:105658003B681B79012B03D03B681B79022B34D1A3
:105668007B689A687B694FEA43034FF0030101FAAC
:1056780003F36FEA03031A407B689A607B689A68B1
:105688003B685B7919467B694FEA430301FA03F3E8
:105698001A437B689A607B685A687B699BB24FF0B3
:1056A800010101FA03F36FEA03031A407B685A60A9
:1056B8007B685A683B689B7919467B699BB201FAFB
:1056C80003F39BB21A437B685A607B68DA687B698C
:1056D8009BB24FEA43034FF0030101FA03F36FEA69
:1056E80003031A407B68DA607B68DA683B68DB7919
:1056F80019467B694FEA430301FA03F31A437B68AF
:10570800DA607B6903F101037B617B690F2B7FF60C
:1057180075AF07F11C07BD4680BC704780B483B0E5
:1057280000AF78607B684FF6FF721A607B684FF0B5
:1057380000021A717B684FF000025A717B684FF0C3
:1057480000029A717B684FF00002DA7107F10C07CA
:10575800BD4680BC704700BF80B485B000AF78609C
:105768000B467B804FF48033FB607A88FB681343D9
:10577800FB60FA687B68DA617A887B68DA61FA68C4
:105788007B68DA617B68DB69FB607B68DB69FB60EF
:1057980007F11407BD4680BC704700BF80B485B0D0
:1057A80000AF78600B467B804FF00003FB737B688B
:1057B8001A697B881340002B03D04FF00103FB7359
:1057C80002E04FF00003FB73FB7B184607F1140758
:1057D800BD4680BC704700BF80B483B000AF78601E
:1057E8007B681B699BB2184607F10C07BD4680BC55
:1057F800704700BF80B485B000AF78600B467B80EF
:105808004FF00003FB737B685A697B881340002BB9
:1058180003D04FF00103FB7302E04FF00003FB736A
:10582800FB7B184607F11407BD4680BC704700BFD4
:1058380080B483B000AF78607B685B699BB2184620
:1058480007F10C07BD4680BC704700BF80B483B029
:1058580000AF78600B467B807B687A881A8307F1F3
:105868000C07BD4680BC704780B483B000AF786039
:105878000B467B807B687A885A8307F10C07BD4604
:1058880080BC704780B483B000AF786013460A4686
:105898007A807B707B78002B03D07B687A881A83A8
:1058A80002E07B687A885A8307F10C07BD4680BC02
:1058B800704700BF80B483B000AF78600B467B8030
:1058C8007A887B685A6107F10C07BD4680BC70472F
:1058D80080B483B000AF78600B467B807B685A69E0
:1058E8007B885A407B685A6107F10C07BD4680BC2B
:1058F800704700BF80B485B000AF786013460A4691
:105908007A807B704FF00003FB604FF00003BB60B0
:105918007A787B8803F007034FEA830302FA03F3DC
:10592800FB607B884FEAD3039BB21A467B884FEA19
:10593800D3039BB219467B6801F1080153F8211083
:105948007B8803F007034FEA83034FF00F0000FA48
:1059580003F36FEA030319407B6802F1080243F876
:1059680022107B884FEAD3039BB21A467B6802F168
:10597800080253F82220FB681343BB607B884FEA78
:10598800D3039BB21A467B6802F10802B96843F850
:10599800221007F11407BD4680BC704780B400AFE1
:1059A8004FF46053C4F202034FF46052C4F202028F
:1059B800126842F001021A604FF46053C4F2020305
:1059C8004FF000029A604FF46053C4F202034FF4A0
:1059D8006052C4F20202126822F0847222F4803209
:1059E8001A604FF46053C4F2020343F21002C2F289
:1059F80000425A604FF46053C4F202034FF46052FD
:105A0800C4F20202126822F480221A604FF4605332
:105A1800C4F202034FF00002DA60BD4680BC704752
:105A280080B483B000AF0346FB7143F60203C4F2AF
:105A380002034FF000021A7043F60203C4F2020395
:105A4800FA791A7007F10C07BD4680BC704700BF91
:105A580080B582B000AF4FF000033B604FF0000309
:105A6800FB714FF00003BB714FF0310000F0D2FD25
:105A78000346BB713B6803F101033B603B68B3F528
:105A8800A06F02D0BB79002BEED04FF0310000F0B0
:105A9800C1FD0346002B03D04FF00103FB7102E068
:105AA8004FF00003FB71FB79184607F10807BD4664
:105AB80080BD00BF80B485B000AF0346FB714FF0D6
:105AC8000003FB604FF46053C4F202031B68FB60E1
